:020000020000FC
:1000000012C011C010C00FC070C00DC053C00BC0D3
:100010000AC009C008C007C006C005C004C003C0AC
:1000200002C001C000C0F8940FED0DBF07EE08BB81
:1000300008EF07BB0FEF02BB0FEB01BB002703BBB1
:10004000A0D09FD09ED090D093D065D09C9BFDCF68
:100050009C9819C089D039D021D050D09D991ED0FC
:10006000999BFBCF989BF9CF00C080D017D046D08A
:1000700052D06BD09D9907C09C9905C09B99E3CF46
:100080009899E1CFF4CF74D07CD07BD06BD006D0E0
:100090004FD0989902C09A99FBCFDCCFF8949898EA
:1000A00044E105E003BF002702BF09B7026009BFB2
:1000B000789408950F930FB64A9521F409B70D7FF0
:1000C00009BF989A0F910FBE1895F894999804E07B
:1000D0000EBD04EF0ABD00E50BBD00270CBD0DBD34
:1000E00009B7006409BF789408950F930FB609B754
:1000F0000F7B09BF999A0F910FBE1895112704E63F
:1001000039D0B29B13950A95D9F7123310F09D9808
:1001100008959D9A0895112704E62CD0B19B13955C
:100120000A95D9F7123310F09C9808959C9A089577
:1001300011270AE01FD0869B13950A95D9F7133033
:1001400010F09A9A08959A980895112704E112D010
:10015000B09B13950A95D9F7133010F09B9808952A
:100160009B9A0895C49A0895C4980895C39A0895CF
:10017000C398089531E02FEF2A95F1F73A95D9F712
:1001800008953FEF2FEF2A95F1F73A95D9F70895A3
:00000001FF
